:020000040000FA
:10000000008000105D020000650200006702000031
:10001000690200006B0200006D0200000000000099
:100020000000000000000000000000006903000064
:100030007102000000000000E10300001D04000048
:1000400077020000770200007702000077020000CC
:1000500077020000770200007702000077020000BC
:1000600077020000770200007702000077020000AC
:10007000770200007702000077020000770200009C
:10008000770200007702000077020000770200008C
:10009000770200007702000077020000770200007C
:1000A000770200007702000077020000770200006C
:1000B0003944000077020000770200007702000058
:1000C0007702000000F002F800F0B6F80AA090E80D
:1000D000000C82448344AAF10107DA4501D100F003
:1000E000ABF8AFF2090EBAE80F0013F0010F18BF1A
:1000F000FB1A43F001031847CCAB0000ECAB000047
:100100000A444FF0000C10F8013B13F0070408BF3D
:1001100010F8014B1D1108BF10F8015B641E05D0DB
:1001200010F8016B641E01F8016BF9D113F0080F90
:100130001EBF10F8014BAD1C0C1B09D16D1E58BF22
:1001400001F801CBFAD505E014F8016B01F8016B59
:100150006D1EF9D59142D6D37047000000230024CC
:1001600000250026103A28BF78C1FBD8520728BFC7
:1001700030C148BF0B6070476E2900F0E7877029D7
:1001800000F0AB82662909F06987652909F0668766
:10019000672909F06387612909F0628703681B0AF0
:1001A00028BF41F08001692900F01C82642900F019
:1001B0001982752900F016826F2901F0D5807829FF
:1001C00000F07782E92901F06F80E42901F06C806A
:1001D000F52901F06980EF2901F0D280F82900F0BB
:1001E00076820368DB0928BF41F08001632900F0B3
:1001F000F087732900F0F587E32902F01583F329CE
:1002000002F01A83002070471FB59DE8030000F03C
:10021000FAFE00F0DBFE04000020002109F0CCF91A
:10022000401C60600020002109F0DCF9E06001F072
:100230008BFD00F0A3FE1FBD06F044F806F0BAF8EF
:1002400006F0B6FF08F054FE0348002107F0C0F89E
:1002500006F0C4FFFEE700000806001006488047CD
:1002600006480047FEE7FEE7FEE7FEE7FEE7FEE79B
:10027000FEE7FEE7FEE7FEE775440000C50000006C
:1002800000487047D02A001010B500F09FFE001DF6
:1002900010BD00BF259300001CB50C46064B7B44E7
:1002A00069460090204600F06AFF04460020694637
:1002B00000F078FF20461CBD030F00000B460146EE
:1002C000184602F087BA00000FB41CB5084B06AA06
:1002D0007B4469460090059800F051FF04460020D9
:1002E000694600F05FFF20461CBC5DF814FB00006F
:1002F000D10E00007047704770477047FFFFFFFF47
:1003000080F309887047EFF309807047684680F3EF
:10031000098804480078C00714BF0220032080F336
:10032000148870475CA30000DFF818C0EFF3058362
:100330001B0618BF6047EFF31483DB0708BF604755
:1003400000DF7047F9770000DFF818C0EFF305838E
:100350001B0618BF6047EFF31483DB0708BF604735
:1003600000DF7047B17A0000EFF30980816911F86E
:10037000021CF1B990E80F10E047EFF3098C8CE80C
:100380000700144B93E8060091420FD039B12CE9D5
:10039000F00FC1F82CC00CB407F08EFF0CBC1A6033
:1003A000D2F82CC0BCE8F00F8CF309886FF0020E75
:1003B000704710B5084A1268914209D8074C54F8A2
:1003C000214090E80F10A047EFF3098C8CE80F0054
:1003D00010BD00005C060010104400001044000036
:1003E00007F0E0FD0C4B93E80600914210D0EFF3CC
:1003F000098C2CE9F00FC1F82CC00CB407F05CFF9D
:100400000CBC1A60D2F82CC0BCE8F00F8CF3098841
:100410006FF0020E704700005C06001008F042F812
:10042000E0E7000007F09CF808F03CF8DAE700008D
:100430000B3020F0070070472DE9F04117460E46BB
:100440000446FFF7F5FFA042054633D9002F1CBF35
:1004500006F10C0005F06AFF30467468F4B12168BB
:10046000A94217D305F1080291423CBF616841607F
:1004700007D3626861194A602268521B0A604160B2
:100480002560002F1CBF06F10C0005F085FF201D24
:10049000BDE8F08120466468002CE0D12946304652
:1004A00000F09DFD0028D7D1002F1CBF06F10C00E5
:1004B00005F072FF0020BDE8F08110B5044600F0A1
:1004C00080FD01682046BDE810400122B4E770B508
:1004D00016460D46041F002808BF70BD002E1CBF25
:1004E00005F10C0005F022FF2B465868002818BFC4
:1004F000A04238BF0346F8D31968CA18A24218BFF1
:100500005C6003D122681C461144196021680A19F5
:10051000824218BF606004D142686260006808448B
:100520002060002E1CBF05F10C0005F035FF70BDEA
:1005300010B5044600F045FD01682046BDE81040B6
:100540000122C4E770B5044685690068C10601D57B
:10055000302600E02026C00707D070BDD4E9012175
:1005600030469047206A401C20626D1EF6D570BD53
:1005700070B5044685690078C00707D170BDD4E91D
:10058000012120209047206A401C20626D1EF6D574
:1005900070BD70B50C460546012A05D02878800646
:1005A00000D5EA69002302E0012305E05B1C9342C9
:1005B00002D2E05C0028F9D1A869E618C01AA86147
:1005C000286A184428622846FFF7BCFF04E0D5E9F2
:1005D000012114F8010B9047B442F8D32846FFF7E5
:1005E000C7FF70BD2DE9F04106460024106875294B
:1005F000314616A510D000F03EFD002802DA404238
:1006000013A507E031688A0701D512A502E0490762
:1006100004D511A5012401E000F036FD00210A22D5
:1006200006F1240709E0B0FBF2FCB0FBF2F302FB99
:100630001C00303078541846491C0028F3D123465A
:100640002A463046BDE8F04100F027BD000000001A
:100650002D0000002B00000020000000F0B40D462B
:100660000188090502D5214C7C4402E01F4C7C44E2
:100670000E34002100F1240608E002F00F071209F1
:10068000E75D42EA03721B097754491C52EA0307EB
:10069000F3D102780023120704D5702D06D009B1DA
:1006A000022311342246F0BC00F0F7BC01231034C1
:1006B000F8E770B504460D462146106800F0E4FCEA
:1006C000024629462046BDE870400023C6E7D21DF9
:1006D00022F00703D3E90023C0E70368126843F060
:1006E000200303600823C3610023B7E7389D00009F
:1006F0002DE9F05F894604464FF0000ADFF874B137
:10070000FB44C0F820A02046E1688847002874D048
:10071000252806D0D4E901219047206A401C206298
:10072000F1E700265F462046E16888472028054615
:1007300007DB312D05D2781910F8200C08B10643DB
:10074000F1E7B00701D526F00406C4F81CA0002785
:10075000C4F818A02A2D09D0284605F0DFFD38B3CB
:1007600004EB8708303DC8F8185019E059F8041B0D
:10077000204604EB87029161E1688847012F054616
:1007800018D1E069002820DA26F020061DE0D8F80C
:10079000180000EB800005EB40003038C8F8180066
:1007A0002046E1688847054605F0B8FD0028EED1EF
:1007B000012F0AD02E2D08D12046E16888477F1CE2
:1007C0000546022F46F02006C4DBA069002803DAA4
:1007D000404246F00106A061F00701D026F0100665
:1007E0006C2D0BD0682D09D04C2D39D06A2D35D009
:1007F000742D35D07A2D33D016E038E0E1682F46DD
:1008000020468847B842054609D16C2F26D04FF4C0
:100810008060E168064320468847054604E06C2F67
:100820001AD04FF4807006430DB3A5F1410019288A
:1008300002D8203546F400664A46294620462660FE
:100840004E46FFF799FC80B101280BD0F61D26F02B
:10085000070000F1080956E74020E4E78020D8E7C8
:100860000020D6E706F104094DE7284652E7206A42
:10087000BDE8F09FC89C00000FB400B58DB010A972
:10088000099000910B904FF0FF300A9000200C90DF
:10089000064878440690064878446A4607900F99BF
:1008A00009A800F0A7FE0DB05DF814FB7F0D000055
:1008B000970D00002DE9FF5F1D464FF0FF3B91466D
:1008C0004FF000085F46D5E90146A96901987F1CF1
:1008D0008847296A824688470028F6D1BAF1FF3F47
:1008E0000CD0002E24F4C06419DD600614D5BAF1D2
:1008F0002B0F09D0BAF12D0F0ED103E0584604B0EA
:10090000BDE8F09F44F48064A96901987F1C884782
:10091000761E8246002E02DDBAF1300F03D0B9F107
:10092000000F26D032E0A969761E01987F1C44F49E
:1009300000748847002E824605DDBAF1780F06D094
:10094000BAF1580F03D0B9F1000F10D01EE0B9F181
:10095000000F02D0B9F1100F18D1A969761E0198C5
:100960007F1C24F4007488478246102002E008208F
:1009700000E00A20814609E0A96908FB0908761E03
:1009800001987F1C44F4007488478246002E05DDE0
:100990004946504600F0FEFC0028EDDAE96901986E
:1009A0008847A00502D46FF00100A8E7E00725D131
:1009B000600613D5600502D5C8F1000000E040468E
:1009C00029680A1D2A600968220501D5087015E00A
:1009D000220701D5088011E008600FE02868011D9A
:1009E00029600068210502D580F8008006E0210713
:1009F00002D5A0F8008001E0C0F8008038467EE70C
:100A000011B14FF4807201E04FF480624FF4007333
:100A100001F066B92DE9F04704464FF000094FF0A8
:100A2000FF37C568D4E90486A80707D0204601F03F
:100A300013F9304605F0C2FC002802DA3846BDE85A
:100A4000F087280502D54046FFF772FD4C2120466D
:100A500000F02DFA206D20F0010020654846EEE7F9
:100A600070B505460A4E304605F060FC05F14C04B1
:100A7000204605F05BFC2846FFF7CCFF05462046E4
:100A800005F08AFC304605F087FC284670BD000062
:100A9000740600102DE9F041044600F14C07384679
:100AA00005F044FCE068810712D0800601D5A66AF3
:100AB00004E0A169606808442169461A204601F0F3
:100AC000CBF8002205463146204601F015F800E03B
:100AD0000025384605F060FC2846BDE8F0812DE988
:100AE000F04118B1BDE8F041FFF7D4BF0B4E00252F
:100AF000304605F01BFC0A4C6F1E07E02046FFF74E
:100B0000C9FF00B13D46206D20F00104002CF5D155
:100B1000304605F041FC2846DFE70000740600106F
:100B2000302B00102DE9F04716468846814602F129
:100B30004C07384605F0FAFB3046FFF76BFF18F814
:100B4000010B61280AD0722802D077283FD102E039
:100B50000125002405E00225042402E0082448F2CF
:100B6000020518F8010B2B2806D0622809D018F8C6
:100B7000010C74280AD00BE045F0030544F0020490
:100B8000EFE745F0040544F00104EAE744F01004FF
:100B90004846214605F050FC411C18D00021316127
:100BA00071604FF40071F560F1617061200704D548
:100BB00030460222002100F09FFF306D40F001001E
:100BC0003065384605F0E8FB3046BDE8F087002682
:100BD000F7E72DE9F04115460E460746204C204622
:100BE00005F0A4FB2A4631463846FFF79BFF054631
:100BF000204605F0D1FB2846BDE8F0812DE9F04103
:100C00000E468046164D284605F090FB154C206D8B
:100C1000C10704D0410804D020F00104F7E72246C0
:100C200012E05420FFF749FC070017D0206D47F071
:100C30000101084354212065384600F038F907F1D6
:100C40004C0005F083FB3A4631464046FFF76AFF09
:100C50000446284605F0A0FB2046CDE70024F8E72F
:100C600074060010302B001010B5431C02E010F881
:100C7000011B71B18107FAD14FF0013202C88C1A01
:100C80008C4314EAC211F9D0C01A0A0603D0C01E60
:100C900010BDC01A10BD0A0401D0801E10BD09028B
:100CA000FCD0401E10BD40EA010370B59B072ED159
:100CB0004FF00136042A2AD308C810C99D1B9D4352
:100CC000121F15EAC61517D0D8B2E1B2401A50EA81
:100CD000056110D198B2A1B2401A50EA05410AD17B
:100CE00023F07F4024F07F41401A50EA052102D1D1
:100CF000180EA0EB146070BDA342DBD018BA21BA65
:100D0000884201D9012070BD4FF0FF3070BD0AB993
:100D1000002070BD10F8013B11F8014B63B1A342F4
:100D20000AD1521E08D010F8013B11F8014B1BB13B
:100D3000A34201D1521EEDD1181B70BD032A40F20F
:100D4000308010F0030C00F0158011F8013BBCF16D
:100D5000020F624498BF11F801CB00F8013B38BF85
:100D600011F8013BA2F1040298BF00F801CB38BF93
:100D700000F8013B11F0030300F06780083AC0F06F
:100D8000088051F8043B083A51F804CBA0E8081059
:100D9000F5E7121D5CBF51F8043B40F8043BAFF38C
:100DA0000080D20724BF11F8013B11F801CB48BFE6
:100DB00011F8012B24BF00F8013B00F801CB48BF1C
:100DC00000F8012B7047431A28BF9A427FF6B6AF4E
:100DD000032A1044114440F2268010F0030F1EBF76
:100DE00011F8013D521E00F8013D10F0030F7FF491
:100DF000F6AF11F0030301F0A580083AC0F00B80B4
:100E000051F8043D083A51F804CD40F8043D40F84B
:100E100004CDFFF7F3BF121D5CBF51F8043D40F84D
:100E2000043DAFF30080D20724BF11F8013D11F853
:100E300001CD48BF11F8012C24BF00F8013D00F896
:100E400001CD48BF00F8012C704710B5203AC0F022
:100E50000B80B1E81850203AA0E81850B1E81850BB
:100E6000A0E81850BFF4F5AF5FEA027C24BFB1E8F8
:100E70001850A0E8185044BF18C918C0BDE8104069
:100E80005FEA827C24BF51F8043B40F8043B08BF72
:100E90007047D20728BF31F8023B48BF11F8012B39
:100EA00028BF20F8023B48BF00F8012B70474FF0E5
:100EB000000200B5134694469646203922BFA0E8AA
:100EC0000C50A0E80C50B1F12001BFF4F7AF0907B6
:100ED00028BFA0E80C5048BF0CC05DF804EB8900A7
:100EE00028BF40F8042B08BF704748BF20F8022BEA
:100EF00011F0804F18BF00F8012B70474FF0013CF4
:100F000050F8042B51F8043B9A4221D1A2EB0C0378
:100F1000934313EACC1317D150F8042B51F8043B38
:100F20009A4215D1A2EB0C03934313EACC130BD1D5
:100F300050F8042B51F8043B9A4209D1A2EB0C0360
:100F4000934313EACC13DBD04FF00000704700BF8F
:100F5000D01A01BAB1FA81F101F0180122FA01F0B8
:100F6000CB40C1F12001DBB2C0B2C01A2CFA01F3B0
:100F7000D11A914311EAC311E6D1704770B5064CFE
:100F80007C44064D7D4403E0206820448047241DB6
:100F9000AC42F9D170BD0000A49E0000B09E0000DC
:100FA0002DE9F04117460E46054633B107FB0354C1
:100FB000E41B2046B047A542FAD1A5F10800BDE8E0
:100FC000F08110B5FFF75CF9083010BD10B5FFF7E0
:100FD00057F9203010BD704770477047704738B5DB
:100FE00004460A4600206946AFF30080002808BF87
:100FF00038BD02460099204600F0CEFF012038BDE2
:10100000012002F0CCB8F8B5AFF30080054600200F
:101010000C46102000BF0646A819A0420DD9324642
:1010200069460020AFF30080070008BF02F0B7F860
:101030000098A04218BF0546C419FFF7C2FF05601B
:101040000746F01D20F007004619284600F00AF870
:10105000B44208BFF8BDA21B31463868BDE8F8406D
:1010600000F09ABF00210160C0E901100C3005F0CA
:101070006DB91020704709684A0501D540B2704724
:10108000C905FCD500B2704709684A0501D5C0B250
:101090007047C905FCD580B270472DE9F0470D4671
:1010A00099469246044600F124080168880604D552
:1010B000E06921F01001216000E00120A84201DD7B
:1010C000471B00E00027A1697A1902EB0900081A02
:1010D000A0612078C00602D42046FFF733FA00262C
:1010E00008E0D4E901211AF806009047206A401C64
:1010F000761C20624E45F4DB2078C0060AD52046D7
:10110000FFF720FA06E0D4E9012130209047206A59
:10111000401C2062381EA7F10107F4DC07E0D4E987
:10112000012118F805009047206A401C2062281E03
:10113000A5F10105F3DC2046FFF71AFA2078000636
:1011400002D50220BDE8F0870120FBE711680268A4
:10115000006A530501D508700AE0D30501D508805F
:1011600006E0130603D5C217C1E9000200E00860DB
:101170000120704701694A1C02610878704700B578
:101180008FB0CDE901310021059105497944CDE9C0
:10119000031011466846FFF7ABFA0FB000BD000020
:1011A000E5FFFFFF0A6802F8010B0A607047D1E90A
:1011B00000239A4202D2531C0B601070704710B586
:1011C000436913B1AFF3008001E0FFF7E2F90120BA
:1011D00010BD127800F124010A7000224A70012229
:1011E000EDE711684FF0FF32E9E700002DE9FF5FFE
:1011F00015468A460446DFF8AC80F8440027D8E953
:1012000000103E46CDE9001010E03AF816106A468C
:1012100002A801F08DFF411C07D02178890603D573
:10122000E269391891420DD80744761C207880066F
:1012300002D5E069B84205DDAE42E6DB3AF81600B9
:101240000028E2D1A069C01BA0612046FFF77AF90F
:10125000D8E90010CDE90010002017E03AF8181086
:101260006A4602A801F064FFB0F1FF3F81460BD04F
:1012700000250DF1080B05E0D4E901211BF805005C
:1012800090476D1C4D45F7D308F10100B0428046F0
:10129000E4DB206A384420622046FFF769F9BDE8A4
:1012A000FF9F0000E29100002DE9F0418046D21D31
:1012B00022F007020025D2E90002F52915A614D074
:1012C000011E72F1000106DA0023D0EB030063EB8C
:1012D000020211A608E0D8F800108B0701D50FA66E
:1012E00002E0490701D50EA601251146002408F1A8
:1012F000240704E000F06FFE30323A55641C50EAD7
:101300000102F7D12B46324621464046BDE8F04166
:10131000FFF7C3BE000000002D0000002B000000FE
:101320002000000030B4002100F1240408E002F0A5
:101330000705D208303542EA4372DB086554491C80
:1013400052EA0305F3D10468002310A2250708D54B
:1013500004F020040C4304D0C46901230CA2641ED1
:10136000C46130BCFFF799BE10B504462146106831
:10137000FFF78AFE02462046BDE810400023D1E771
:10138000D21D22F00701D1E90023CBE700000000C5
:10139000300000003A2800D2303820F02002412AE4
:1013A00001D3A2F13700884201D34FF0FF307047DC
:1013B0002DE9FF4F1C4691464FF0FF3581B00021CB
:1013C0008A468846D4E90167A16902986D1C88475E
:1013D000216A834688470028F6D1BBF1FF3F0CD035
:1013E000002F26F4C0661ADD700615D5BBF12B0F51
:1013F0000AD0BBF12D0F0FD104E04FF0FF3005B044
:10140000BDE8F08F46F48066A16902986D1C88479C
:101410007F1E8346002F02DDBBF1300F03D0B9F1F0
:10142000000F2AD025E0A1696D1C02987F1E46F4AA
:1014300000768847002F834605DDBBF1780F06D084
:10144000BBF1580F03D0B9F1000F10D011E0B9F182
:10145000000F02D0B9F1100F0BD1A1696D1C0298D9
:101460007F1E26F4007688478346102000E008207F
:1014700081464FEAE970009017E00A20F8E74346FA
:10148000AAFB0928DDF800C07F1E03FB098046F493
:10149000007605F101050AFB0C0112EB0B0A02981C
:1014A00041EBEB78A16988478346002F06DD49466A
:1014B0005846FFF76FFF5FEA000BE0D5E16902983D
:1014C0008847B00502D46FF0010098E7F00718D103
:1014D000700610D55146700505D50023D1EB0301E8
:1014E00063EB080200E042462068031D23600068A9
:1014F000C0E9001205E02068011D21600068C0E914
:1015000000A828467BE72DE9FF5F4FF000089946C9
:10151000144646469169D2E901A7DDF838B0019832
:101520008847054659EA0B0005D009E0A1690198F2
:10153000761C88470546216A284688470028F5D149
:10154000681C03D05FEACA7005D015E04FF0FF3089
:1015500004B0BDE8F09F2068011D2160D0F8008034
:101560000AE05FEACA7001D108F8015BA169761C44
:1015700001987F1E88470546002F1ADD681C18D089
:10158000B9F1000F0DD0E81705EBD060421120F043
:101590001F0059F822102A1A012090400142E0D180
:1015A00007E0BBF1000FDCD12846216A88470028FC
:1015B000D7D0E16901988847BBF1000F07D1002E11
:1015C00005DD5FEACA7002D1002188F80010A0682A
:1015D000B84203DDBBF1000F03D017B16FF001007B
:1015E000B6E73046B4E700000268114413780160A2
:1015F00018467047D16005497944516104497944DE
:10160000116200211161114601F038B9EDFFFFFFB1
:101610005F0A0000426842B1016811F8013B23B142
:10162000521EC0E90012184670470121C160881E91
:10163000704742685AB1C368016843B983688B42F6
:1016400005D0491E521CC0E90012002070474FF01F
:10165000FF3070472DE9FF4F4FF000089A461446BF
:10166000C146464683B0D2E901B7CDF80080CDF837
:101670000480916904988847109905465AEA010048
:1016800005D009E0A1690498761C88470546216ABF
:10169000284688470028F5D1681C03D05FEACB7044
:1016A00005D02AE04FF0FF3007B0BDE8F08F20688A
:1016B000011D2160D0F800801FE002A86A46E9B24F
:1016C00001F018FD411C07D0801C09D04FF0000923
:1016D0005FEACB7007D00AE0E169049888473EE0F2
:1016E0004FF0010904E0BDF8081028F8021B7F1E26
:1016F000A1690498761C88470546002F1ADD681CEE
:1017000018D0BAF1000F0DD0E81705EBD0604211E8
:1017100020F01F005AF822102A1A0120904001429E
:10172000CBD107E010980028C7D12846216A884706
:101730000028C2D0E16904988847B9F1000F0ED1A2
:10174000109830B9002E04DD5FEACB7001D1A8F803
:101750000000A068B84202DD109818B117B16FF010
:101760000100A1E730469FE72DE9FF4F4FF0000849
:101770009B461446454683B0D2E90196CDF80080D9
:10178000CDF804809169DDF848A0049888470746A1
:101790005BEA0A0005D009E0A16904986D1C88473E
:1017A0000746216A384688470028F5D1781C03D0BF
:1017B0005FEAC97005D01BE04FF0FF3007B0BDE80D
:1017C000F08F2068011D2160D0F8008010E05FEAF2
:1017D000C97007D16A464046B9B201F0A9FC411C64
:1017E00031D08044A1696D1C0498761E8847074655
:1017F000002E14DD781C12D0BBF1000007D03B4650
:10180000DDE9101201F046FC0028E0D107E0BAF152
:10181000000FDCD13846216A88470028D7D0E1691B
:1018200004988847BAF1000F06D1002D04DD5FEA65
:10183000C97001D188F80000A068B04203DDBAF198
:10184000000F03D016B16FF00100B7E72846B5E7E7
:101850002DE9FF5F9B46144600273D469169D2E97A
:101860000196DDF840A00198884780465BEA0A00AF
:1018700005D009E0A16901986D1C88478046216A5E
:10188000404688470028F5D1B8F1FF3F03D05FEA12
:10189000C97005D014E04FF0FF3004B0BDE8F09FF0
:1018A0002068011D216007680AE05FEAC97001D164
:1018B00027F8028BA1696D1C0198761E8847804627
:1018C000002E15DDB8F1FF3F12D0BBF1000007D0AC
:1018D0004346DDE90E1201F0DDFB0028E5D107E00B
:1018E000BAF1000FE1D14046216A88470028DCD0D8
:1018F000E16901988847BAF1000F05D1002D03DD99
:101900005FEAC97000D13880A068B04203DDBAF147
:10191000000F03D016B16FF00100BEE72846BCE708
:101920002DE9F04705460C46C86820F4201040F425
:101930008000C860800602D5084600F0B0F9E06873
:1019400041F282014FF0FF390140022903D02046C5
:1019500000F04EF9B5E000F42041B1F5004F0FD191
:10196000C00306D56168E06A884200D80846606016
:1019700006E02069E0626060606904F035FDA06106
:10198000A0680022EEB200280DDAE1688B050AD4C7
:10199000C043A06041F490302260E0606068411C68
:1019A00061600670A5E0E0689046226040F4005057
:1019B000E060206968BB606904F02AFD012704F13A
:1019C0002405A0B1A08910F4407F08D0E069FEF79B
:1019D00074FD206118B1E06840F4006016E0E76132
:1019E0002561E06820F4407040F480600EE0E0691A
:1019F000FEF763FD00282061F1D0E06840F400604C
:101A000010F4407FE06002D140F48070E060206913
:101A10006060E06825696FF0010AC1051FD5616843
:101A2000E06A884200D80846411B04D02246284676
:101A300000F0E8F8F0BBE068010203D5E562C4E914
:101A4000015854E0691CE1626160E16940F4803052
:101A5000491EC4E9021030462E70BDE8F08701022D
:101A600002D500F480320AE06068411C61600670B3
:101A7000E0680A2E40F48030E06006D00022E16A7F
:101A80006068814203D90B4602E00122F7E7034672
:101A9000A7895B1B7F0503D4E7699F4200DDE2B1A4
:101AA000814200D80146E5620F1AC4E90158002BB3
:101AB00009DD00E005E022461946284600F0A2F8BC
:101AC00008B14846C9E747B1A069E5626560C01B37
:101AD000A061E06840F01000E060E068000208D516
:101AE0006168A069E562491B08446560A0615046D1
:101AF000B3E73046B1E700002DE9F0410446164651
:101B00000D464769007B80072ED0384604F080FCE4
:101B100050BB3EB3012E02D0022E25D104E0204658
:101B200001F0C7FA05441DE0384604F05DFCE168A9
:101B3000002841F01001E16005DA204600F058F875
:101B40000120BDE8F081C9030BD56268E16A9142CA
:101B500000D81146A26911442269891A814200DD28
:101B600008460544002D01DA0220EAE7E16A6068D0
:101B7000E268814206D29103E06203D522F400318B
:101B800041F01002A6690027AE4213DCE16A8142EF
:101B900001D90B4600E0034603EB060C2369ACEBCE
:101BA000030CAC4506DD814201D98C4600E0844639
:101BB0009C4505D1A760276042F02000A5620DE09A
:101BC000AD1BE669AE1B8142A66000D90846C01A6B
:101BD000281A20605819606022F02000034908404C
:101BE000E060002084F84870ABE70000BFCFD7FF6B
:101BF000C16821F4001141F08001C16000218160C1
:101C0000016070472DE9F047814614460E464FF0BB
:101C1000FF383248D5685769054209D03846A1696E
:101C200004F02AFD002811DB2C48C0430540E56084
:101C30002B4632464946384604F032FDA16920F071
:101C40000042B21A11440028A16103D02046FFF7D8
:101C5000CFFF4046BDE8F08770B504460569C06A0D
:101C60006168884200D80846E16821F42011E160EB
:101C7000C90312D5A84208D02246411B2846FFF7C7
:101C8000C1FF10B14FF0FF3070BD0020E562C4E924
:101C90000150E06820F48030E060002070BD10B595
:101CA0000446C06820F02000E060A16AA069884274
:101CB0000DD02046FFF7D0FFE06820F4405040F000
:101CC0001000E060A06AA0612069E062606044F2F8
:101CD0004001E0688843E06010BD00001000020091
:101CE0002DE9F04704461E4690460D46C7684C3025
:101CF000814604F01BFBB80714D0780212D440468A
:101D0000B8F5807F09D0B0F5007F06D0B8F5806FB8
:101D100008D1012604F1240506E0701E6FF07F4112
:101D2000884201D3012409E02561E6616560E0682D
:101D300020F4706040EA0800E0600024484604F0A7
:101D40002BFB2046BDE8F08710B565485421FFF70E
:101D5000AEF864485421FFF7AAF863485421FFF70E
:101D6000A6F862485E49624A624B01605D481060B5
:101D70005D4A1A60431C0B65511C0165012010650A
:101D800057484C3004F0E2FA56484C3004F0DEFA82
:101D900055484C3004F0DAFA574804F0D7FA58485E
:101DA0004F4A56A17844FEF714FF20B954487844AE
:101DB0000A3801F0EDF954484A4A52A17844FEF736
:101DC00008FF20B9504878440A3801F0E1F94F483B
:101DD000454A4CA17844FEF7FCFE20B94B487844B4
:101DE0000A3801F0D5F940233D48DC0000212246A5
:101DF000FFF776FF20B142487844543801F0C8F923
:101E00003848224640230021FFF76AFF20B13E48B0
:101E10007844543801F0BCF933482246102300219D
:101E2000FFF75EFF002806D038487844BDE8104030
:101E3000563801F0ADB910BD2B482DE9F041006DC9
:101E40002D4E20F00104304604F070FA244D4C353C
:101E5000284604F06BFA2248FEF7DCFD284604F021
:101E60009BFA2846AFF300801E4D4C35284604F0FF
:101E70005DFA1C48FEF7CEFD284604F08DFA284690
:101E8000AFF30080184D4C35284604F04FFA164841
:101E9000FEF7C0FD284604F07FFA2846AFF3008025
:101EA00014E0206D20F0010504F14C00074604F019
:101EB0003DFA2046FEF7AEFD384604F06DFA38468E
:101EC000AFF300802046FEF733FB2C46002CE8D110
:101ED000304604F061FA0848AFF30080BDE8F081B5
:101EE000302B0010842B0010D82B00106806001037
:101EF0006C060010700600107406001072000000DE
:101F00008C850000770000007B8500006B85000059
:101F100010B501F04BF9BDE8104001F034B9431A97
:101F200028BF9A427EF691AF104410F0030F11447F
:101F30001EBF11F8013D521E00F8013D10F0030FC5
:101F40007FF4F6AF103AC0F00A8010B531E91850AE
:101F5000103A20E91850BFF4F9AFBDE8104053071C
:101F600024BF31E9081020E9081044BF51F8043DAE
:101F700040F8043D12F0030F08BF7047D20728BF96
:101F800031F8023D48BF11F8012C28BF20F8023D6E
:101F900048BF00F8012C704730B404468C464368B3
:101FA000002B18BF634538BF1846F8D303681844A0
:101FB000604507D0C81C20F0070000F1040CACEB12
:101FC0000100121A2146CCF8002030BC00220CF18E
:101FD0000400FEF77CBA30B5B0F10A024FEA900E69
:101FE00071F100034EEA817EB0EB0E0061EB9101CE
:101FF0004FEA101E4EEA017E10EB0E0041EB11116C
:102000004FEA102E4EEA016E10EB0E0041EB11214B
:102010004FEA104E4EEA014E10EB0E0041EB11411B
:10202000401841F100014FEAD00040EA41704FEA08
:10203000D10110EB80054FEA810444EA907444EB2F
:1020400001046D1944EB0404521BA3414FF000033B
:1020500048BF0A3200D530BD401C41F1000130BDFF
:1020600010B50446FEF710F90068005D00F00100AD
:1020700010BD0FB4014610B504AA039800F0AAFBE6
:1020800010BC5DF814FB00007CB51D4616460C0024
:10209000009001D02044401E074B7B442A466946ED
:1020A00001903046FFF76BF805461CB100206946E9
:1020B000FFF778F828467CBD11F1FFFF70472DE946
:1020C000FF4F0C461E464FF0FF378BB0D2E90001A0
:1020D000DDF860800A908A46C1F30A5505B93D468D
:1020E000002108464FF00000BAF1000F00F4400054
:1020F00005DA00EB80004FF4400101EA50004FEA9E
:102100009059B9F1010F00DDB9460A9850EA4A002A
:102110000ED044F61050A5F2FF3545432F14B8F108
:10212000000F1ED07542291E1EDDC9F100021CE001
:10213000B8F1010F4FF0000001D0302103E0F2436D
:1021400005E02154401CB042FBDB30460022002158
:1021500021540B99C1F80880C1E900200FB0BDE8F7
:10216000F08FBD1B6D1CDEE74A4600DA694206A807
:1021700001F0FAF806AB93E8070003AB83E8070029
:1021800050460A9901F036FD8DE80700A0F5005091
:102190001F3800900398002D09DD42F21F014A46C6
:1021A000084403A90390684601F0BFFF08E0A0F5CA
:1021B00000504A461F3803A90390684601F0DDFF2E
:1021C0008DE807000004000C03D04FF0FF304108F9
:1021D00000E01046B8F1000F03D00022009215462F
:1021E0001EE0751E05D4FFF7F6FE303262556D1EF7
:1021F000F9D5B3460122084302D000227F1C04E037
:102200002078302801D100227F1E002A099786D02D
:102210001DE0112D07DAFFF7DEFE303262556D1C2E
:1022200050EA0102F5D1084302D00098C8B10EE08F
:102230000021681E05E0235C625C63542254401E4A
:10224000491C8142F7DBAB46A81B401E09900020C9
:1022500004F80B000B98099AC0F80880C0E9002B1D
:102260007CE711264FF0000859E72DE9F04F88462A
:102270000446D21D22F0070191B0D1E90001CDE959
:102280000A0103F032FE02460B98C00F01D02D2048
:1022900007E02068810701D52B2002E0202101EA18
:1022A000C000032A099001D0072A05DB03464146F6
:1022B000204601F019F80BE12078800601D5E0698D
:1022C00000E00620B8F1650F814606D0B8F1660F30
:1022D00018D0B8F1670F70D131E00020B9F1110FBB
:1022E000009001DB112301E009F101030AAA01A911
:1022F0000CA8FFF7E4FEDDE90C70002609F10105EA
:10230000834647E001204B4600904FF000470AAA61
:1023100001A90CA8FFF7D3FEDDE90DB00C995D46CD
:10232000002610B909F101000D18B9EB050003D41E
:10233000C0F1FF3609F10105A5EB09002BE0B9F169
:10234000010F01DA4FF001090020B9F1110F0090DF
:10235000484601DD112300E003460AAA01A90CA8A2
:10236000FFF7ADFEDDE90C704D4600268346207870
:1023700000070AD4AB4500DA5D4601A8012D04DD53
:10238000411911F8011C302907D04F4502DA17F125
:10239000040F04DA012082460FE06D1EEEE7002FE5
:1023A00002DCED1B3E4403E0781CA84200DD7D1CEE
:1023B000B81B00F1010A4FF000472078000703D452
:1023C000AA4501DB4FF0FF3A0021B7F1004F0DF1B4
:1023D00043088DF8431024D002202B23002F01DA6C
:1023E0007F422D230A21021EA0F1010000DC5FB113
:1023F00097FBF1FC97FBF1F201FB1C7C17460CF1FB
:10240000300C08F801CDEEE7A8F101000370218837
:10241000090501D5452100E06521A0F1010800F87A
:10242000011C09980FA9A1EB0807FF1D00B10120AD
:10243000411901EBEA70A1693844081A401EA061F5
:102440002078C00602D42046FEF77CF8099828B10F
:10245000D4E901219047206A401C20622078C00600
:1024600022D52046FEF76EF81EE0002E04DBB345B1
:1024700002DD01A8805D00E03020D4E90121904711
:10248000206A401C2062761CAAF101005FEA000A63
:102490000AD1FEF79BFDC0680168405CD4E90121C8
:1024A0009047206A401C2062281EA5F10105DCDC53
:1024B00007E0D4E9012118F8010B9047206A401C7D
:1024C0002062381EA7F10107F3DC2046FEF750F822
:1024D000032011B043E600002DE9F04F04460D46FD
:1024E000D21D22F0070089B0D0E90097484639464E
:1024F00003F0FBFC0246F80F01D02D2307E0206813
:10250000810701D52B2302E0202101EAC0038DF8C9
:1025100020300BB1012000E00020032A824601D0C8
:10252000072A04DB2946204600F0DEFE3FE1207842
:10253000800601D40D2500E0E569C7F30A560D2D8C
:1025400049DA00214FEA175B08464FF00000002FE0
:1025500000F4400007DA00EB80004FF4400100EB8C
:10256000D07001EA60008115012901DD4FF0FF31D3
:1025700000224FEA850CBCF1180F06D31346ACF1CC
:1025800018004FF08052C24003E04FF4801323FA4A
:102590000CF30CF10C0CBCF1200F04D3ACF1200CAB
:1025A00009FA0CF001E007FA0CF000294FF000489E
:1025B00001DD18B90FE00ED140450CD319EB02092B
:1025C0005F4121B9404502D19F4329EA0209BBEB93
:1025D000175F00D0761C2088000502D57B48784420
:1025E00002E07A487844193808AA302302F80A3001
:1025F000037C0AF10101002E0AF1020A53546A46D3
:1026000002DC4FF0300101E04FF031014FF00108E2
:102610008DF8001002D0A6F2FF3603E059EA470118
:1026200000D06B4E002D02DC2178090704D54FF055
:1026300002082E218DF80110C44600210BE0C7F3DB
:1026400003433F01C35C491C6D1E02F80830052995
:1026500008F1010801DA002DF1DC00210CE000EBAB
:102660001973491C1B786D1E082902F808304FEABF
:10267000091908F1010801DA002DF0DC21688B0648
:1026800002D516E0A8F10108E04505DD02EB0803DC
:1026900013F8013C302BF5D0B8F1000F09DD02EB47
:1026A000080313F8013C2E2B03D1090701D4A8F12C
:1026B0000108002D05DD3E2102F808106D1E08F10D
:1026C0000108407C002E02F8080008F1010804DA35
:1026D0002D20764202F8080002E02B2002F80800C4
:1026E0000A214FF47A70864208F101080BDB96FB51
:1026F000F0F3303302F8083096FBF0F308F10108EC
:1027000000FB136601E0642E0CDB642096FBF0F303
:10271000303302F8083096FBF0F308F1010800FBB3
:10272000136601E00A2E06DB96FBF1F0303002F86A
:10273000080008F1010896FBF1F001FB1060303051
:1027400002F80800A16908F1010808EB050202EB94
:102750000A00081AA0612078C00602D42046FDF7BE
:10276000F1FE216A08AE01EB0A00206204E0D4E920
:10277000012116F8010B9047BAF1010AF7D220782F
:10278000C00602D52046FDF7DDFE6E4609E016F8CC
:10279000010B3E280FD0D4E901219047206A401C4C
:1027A0002062B8F10108F2D22046FDF7E1FE09B03F
:1027B0000320BDE8F08F206A2844206203E0D4E9BA
:1027C0000121302090476D1EEBD3F8E7757E0000A5
:1027D00002FCFFFF2DE9F04114460D46074601F1CA
:1027E0004C06304603F0A2FD094B7B4422462946A5
:1027F0003846FEF7C4FC0446287B000601D54FF09E
:10280000FF34304603F0C8FD2046BDE8F0810000EB
:102810008F40000010B5436913B1AFF3008001E0B1
:10282000FEF7E4FC012010BD128800F1240182842F
:102830000022C2840122EDE711684FF0FF32E9E780
:102840000FB400B58DB010A9099000910B904FF016
:10285000FF300A9000200C90064878440690064805
:1028600078446A4607900F9909A8FEF7C3FE0DB099
:102870005DF814FBB7EDFFFFCFEDFFFF2DE9F34F40
:102880004FF0000A0C4656468DB001200C9001F125
:102890000C000B9062690B9801219047051E2DD00A
:1028A000252D2CD0216A8847C0B162690B9801217F
:1028B0009047216A88470028F7D16269411E0B982A
:1028C000904700E0761CA1690D988847216A8847E7
:1028D0000028F7D1E1690D988847DBE7A1690D98D9
:1028E0008847A842074601D1761CD3E7E1690D98D5
:1028F00088477F1C02D1BAF1000F6FD06BE162698B
:102900000B9800273D46394690472A2804D1626932
:102910000B98012190470125DFF8D08262690B985E
:1029200001219047A0F130010A290AD24745E5DC90
:1029300007EB870100EB4107303FDFD445F010057E
:10294000ECE7E90601D46FF000476C280AD04C2868
:1029500014D0682815D06A280DD074281CD07A2885
:102960001AD01DE062690B98012190476C2802D0B3
:1029700045F0040514E045F002050DE045F02005A2
:102980000AE062690B9801219047682802D045F05F
:10299000080505E045F4006562690B980121904740
:1029A000C4E9015765283DD019DC58287AD00CDCE1
:1029B000452837D004DC252826D041289ED131E097
:1029C00046282FD0472899D12CE05B2877D0612862
:1029D00028D063287CD0642823D15AE0F6E06F2801
:1029E00048D008DC66281DD067281BD0692821D074
:1029F0006E2816D127E0702845D0732868D0752836
:102A000047D078280DD14DE0A1690D988847252839
:102A100005463FF469AFE1690D9888476D1C3FF4A6
:102A20006AAFD8E00D9923466A466FF0010007F0BF
:102A300079FBC5E045F0400023464FF0000260609E
:102A4000A80736D43EE0E8077FF447AF2068011DB1
:102A500021600068290501D506701BE7290701D50B
:102A6000068017E7A90703D5F117C0E9006111E750
:102A700006600FE745F0400023464FF00802606013
:102A8000A80716D41EE040F60E0125EA010060609A
:102A900016E045F0400023464FF00A026060A807A8
:102AA00007D40FE045F040006060A80708D5234632
:102AB00010220D996FF00100FEF77AFC80E007E02C
:102AC000102223460D996FF00100FDF7F3FE77E029
:102AD0004FF0000963284F46C8464B46CB4602D00C
:102AE0005B2806D038E0E80601D40120A060012769
:102AF00032E06269D4F80CB00B98012190475E284F
:102B000007D14FF0010949466269D4F80CB00B981F
:102B10009047216939B900210A4603AB43F82120C7
:102B2000491C0829FADBD8B3216949B308F1010827
:102B300062690B98012190475D28F4D1B9F1000F2B
:102B400009D0002003A951F82020D24341F82020C9
:102B5000401C0828F7DB03AB2069002820794FEAE6
:102B600040701ED05B462246CDF80080CDE901972B
:102B70000D9900286FF0010020DAFEF769FE1FE0D2
:102B8000C11703AA00EBD1614B1121F01F0102EB29
:102B90008302411A13680120884003431360C7E78A
:102BA00019E00D99224600286FF00100009702DA23
:102BB000FEF750FD04E0FEF7A6FC01E0FEF7D4FDB1
:102BC00000280ADA401C06D10C9820B14FF0FF30E3
:102BD0000FB0BDE8F08F5046FAE7E90701D10AF1DE
:102BE000010A064400200C9054E60000CCCCCC0C2A
:102BF0002DE9FF4F064689B00878FF2806D0491C0A
:102C00002D2805D000244FF0000908E000200CE03A
:102C10000124F8E709EB8903491C00EB4309087814
:102C2000FF28F7D114B1C9F10000814610780025C2
:102C30002C46AA4629462D2801D02B2804D1521C07
:102C40002D2813D0002082468B461078FF280FD005
:102C50004FF0000C0A21521CA5FB017804FB0181F6
:102C600005FB0C11C5194BEB0104EEE70120EAE767
:102C7000002108464FF00000BAF1000F02D000EB2F
:102C800080004008C0F38158B8F1010F01DD4FF01A
:102C9000FF380C9809EB000755EA040009D04FF003
:102CA000020917F5FA7F0BDA4FEACA70C6E900B0DD
:102CB00012E04FEACA70C6E900B00DB0BDE8F08F6F
:102CC000B7F5FA7F0DDDF0487844D0E90010C6E989
:102CD000001040EACA70706000F003FBC0F800907A
:102CE000EBE7391E02DAC8F1000200E0424600DAE2
:102CF000794206A800F038FB06AB93E8070003AB67
:102D000083E8070044F23E005BEA04010090584665
:102D100004D144F21E012C465D460091210C0904A9
:102D2000014306D10099240444EA15442D041039C6
:102D3000009104F07F41014306D10099240244EA46
:102D400015642D020839009104F07041014306D149
:102D50000099240144EA15742D01091F009104F023
:102D60004041014306D10099A40044EA9574AD00A6
:102D7000891E009104F00041084304D100986D19A8
:102D80006441401E009042466846002FCDE901454F
:102D900003A902DD01F005FA01E001F0DAF9BAF168
:102DA000000F04460D4601D084F0004440F2FF7746
:102DB00024F00040284303D0C4F30A50B84212D193
:102DC00000F08FFAC0F80090C4F30A50B8420AD15C
:102DD000AE487844D0E90010C6E9001004F0004184
:102DE0000843706069E7C6E9005466E72DE9FF4FC4
:102DF0001F464FF0000A4FF0FF38454691B0D7E923
:102E00000146CDF83CA0FEF7E1F8C0680168405CDF
:102E10001090B96912986D1C8847396A81468847B5
:102E20000028F6D1B9F1FF3F0AD0002E24F4D06477
:102E300011DDB9F12B0F08D0B9F12D0F0BD102E044
:102E4000404615B03AE744F48064B96912986D1CA5
:102E50008847761E8146600504A901D52D2000E033
:102E60002B20002E01F1010B0DF130088DF8100020
:102E70003FDDB9F1690F08D0B9F1490F05D0B9F1BB
:102E80006E0F02D0B9F14E0F1CD13B4601A8009540
:102E900080E85002DDE912126FF0020007F046F9F7
:102EA000C11CCED10EE0B96912986D1C88478146CD
:102EB0001398761E44F4007405600F98401C002E91
:102EC0000F9016DDB9F1300FEDD0B9F1780F02D0C7
:102ED000B9F1580F0DD10F9801280AD13B46CDE921
:102EE0000054DDE91212001F029607F01DF9C11C03
:102EF000A7D1109989453ED144F0800406E013998A
:102F0000681CAAF1010A44F400740860B9696D1CD8
:102F10001298761E884730288146F0D02BE0109911
:102F2000894505D1200603D4761E44F0800418E0BC
:102F3000484603F0F3F908B3761E0DF123018B45E3
:102F400044F4007408D2A9F130000BF8010B2006FC
:102F500007D5AAF1010003E0200602D40AF101001E
:102F60008246A00502D51399681C0860B9691298B9
:102F70006D1C88478146002ED1DC53E0002E51DDC8
:102F8000B9F1650F02D0B9F1450F4BD1A00549D574
:102F9000B9696D1C1298761E24F440748847002E7F
:102FA00081460CDD2B2804D0B9F12D0F07D144F454
:102FB0008074B96912986D1C8847761E8146E005B9
:102FC00001D52D2100E02B2108F8011BCDF8008050
:102FD00021E0761E0DF13901884544F400740CD2CD
:102FE000A9F1300010F0FF0088F8000002D100992C
:102FF000884509D908F1010806E0E00501D5244813
:1030000001E042F20F708246B96912986D1C884740
:10301000814613980560002E04DD484603F07EF9D2
:103020000028D6D1F96912988847FF2053468BF8BB
:10303000000088F8000000200A900B9004AA0CA958
:103040000AA8FFF7D5FDA00502D46FF00100F8E64D
:1030500014F0240F0AD0E00714D13868DDE90A1211
:10306000031D3B600068C0E900120BE00AA9684636
:1030700002F0A6FFE00705D13868009A011D39600B
:10308000006802602846DCE6188000000E7F000021
:10309000F1D8FFFF10B508E030F8024B9C4204D194
:1030A0000AB1002010BD012010BD491EF4D2104607
:1030B00010BD10B50146C268900703D0900607D531
:1030C000886A0AE000F00DF901210160881E10BD38
:1030D0008B69486818440B69C01A91F848301BB1D5
:1030E00091F84910401A10BD1103FCD50028FADDF3
:1030F000401E10BD70B516460C460546FDF7C4F8D7
:10310000036893F80101012804D0185D68B101201B
:103110002C8070BDD3F803013246214603F203131D
:1031200003442846BDE8704018474FF0FF3070BD9B
:1031300070B516460C460546FDF7A6F8036893F8E9
:103140000101012806D0FF2C0FD8185D68B10120BD
:103150002C7070BDD3F807013246214603F20713E5
:1031600003442846BDE8704018474FF0FF3070BD5B
:1031700010B5002000F087F9AFF30080BDE81040E3
:10318000012000F0A3B8002801D000F09FB87047DC
:1031900010B500F07FF9BDE81040FFF7F4BF10B59F
:1031A00000F092F9BDE81040FFF7EDBF10B5002127
:1031B00002A000F04FF9012010BD00005349475014
:1031C00056464E3A20507572652076697274756164
:1031D0006C20666E2063616C6C65640040EA0103DC
:1031E000024630B59B0710D14FF0013400E008C211
:1031F00008C91D1B9D4315EAC41FF8D013F0FF0139
:1032000002F8011B0DD01B0AF8E711F8013B002B57
:1032100002F8013B05D011F8013B002B02F8013BFD
:10322000F3D130BD0022CBB210F8011B994200D17E
:10323000421E0029F8D110467047421E12F8013F85
:10324000002BFBD111F8013B002B02F8013BF9D117
:10325000704710B502F07AFEBDE8104002F0BEBD26
:1032600010B500F00EF8016919B10022026188471B
:1032700001E080688047FFF77BFF000010B5FFF793
:1032800077FF70B500F028F804680546A4B920203F
:10329000FDF713F9040011D0094900202C60C4E99E
:1032A00000010849A1602073206160610649A061A6
:1032B00009B100F035F9E061204670BDFFF758FF15
:1032C000000000007D3200000000000001491820CD
:1032D000ABBEFEE72600020010B5FCF7D1FF3C3084
:1032E00010BD02F0D9BF00002DE9F0411F46044691
:1032F00003260168072A01F4006004DB08B116A563
:1033000005E016A503E008B115A500E015A521F01C
:1033100010002060A069C01EA0610FB1401EA06116
:103320002046FDF70FF94FB1D4E901213846904707
:10333000206A401C2062C01C206206E0206AFAE776
:10334000D4E9012115F8010B9047761EF8D22046EA
:10335000FDF70EF9BDE8F0814E414E006E616E0042
:10336000494E4600696E66002DE9F04781461646D3
:103370008AB0334878440DC88DE80D003048784451
:10338000801C03AC0DC884E80D0041F69B30084456
:10339000372190FBF1F290FBF1F5A5F1800501FBDF
:1033A00012041B3C02D56442012000E00020DFF83B
:1033B00090A080460027FA44AAF1BE0A0DE0E0077B
:1033C00009D03246684607EB47010AEB810100F05D
:1033D000D4FE8DE8070064107F1C002CEFD1184F3D
:1033E0007F44AC3F18E0E80714D007EB04100DF160
:1033F000180A90E80E008AE80E00C068F04201D179
:1034000098190890324606A903A800F0B6FE03AB4F
:1034100083E807006D10641C002DE4D13246694634
:10342000B8F1000F03A802D000F07FFE01E000F029
:10343000A4FEC9E90001C9F808200AB0BDE8F08778
:10344000707300000A460146014800F010BB0000FE
:10345000482C001070B505460C460A2000E06D1C93
:1034600000F07CF835B128780028F8D102E0641C1F
:1034700000F074F814B120780028F8D1BDE870404D
:103480000A2000F06BB810B500F07AFBBDE81040E0
:10349000FFF779BE10B5014602A0FFF7DBFF012060
:1034A00010BD000053494752545245443A205265DA
:1034B0006469726563743A2063616E2774206F706B
:1034C000656E3A200000000010B5012805D00021EB
:1034D00003A0FFF7BFFF012010BD09A1F8E700001E
:1034E00053494752544D454D3A204F7574206F66ED
:1034F0002068656170206D656D6F72790000000055
:103500003A2048656170206D656D6F727920636F38
:10351000727275707465640001B5FDF70FFC01BD32
:1035200010B58820FCF7C9FF002801D000210170E8
:1035300010BD802902D808B1017809B10020704778
:10354000012100F8081B704718B100F108029142F0
:1035500001D00020704700210170704708B569460E
:103560008DF800000320ABBE08BD10B5FFF7B9FE13
:10357000006810BD10B50446FFF7B3FE046010BD2F
:103580002DE9FF4F1F464FF03C0987B04FF0004236
:10359000DDE9141001F10108DDF858A002EA4050FD
:1035A0000390002005908346054604460490B969BF
:1035B000461E08988847AAF1010A0290BAF1000F46
:1035C0003BDD02982E2815D01021FDF7E3FE0028E0
:1035D0002EDB4FF0010B0599014317D0B9F1000F15
:1035E0000BDB4A46C11700F0E4FA05430C43A9F18E
:1035F000040905E0012004900BE008B145F0010545
:1036000001200590049820B9361D02E0049800B10D
:10361000361FB969089808F101088847BBF1000F07
:10362000AAF1010A0290C9D00999C1F80080C5E742
:103630000298702808D0502806D0F9690898884761
:10364000BBF1000F14D04FE0002002900120BBF12D
:10365000000F049009D0B969089808F1010888475B
:10366000AAF10109B9F1000F07DCF9690898884748
:103670006FF001000BB0BDE8F08F2B2804D02D288F
:103680000CD14FF0FF300490B969089808F1010897
:103690008847A9F10109B9F1000FE6DD411CE4D02A
:1036A0000A21FDF777FE0028DFDB029908F1010807
:1036B00001EB810100EB41000290B969089888474D
:1036C0000A21FDF767FE099AA9F10109B9F1000F76
:1036D000C2F8008001DD0028E7DAF9690898884718
:1036E0000499029800FB016655EA040004D004F036
:1036F0004041090002D006E0039898E0A40044EAA3
:103700009574AD00B61E04F00041080002D16D1999
:103710006441761E159810F0240F03D04FF00B096A
:103720005C4803E04FF028096FF07D008246564563
:1037300007DAAAEB06018944B9F1410F01DD4FF028
:10374000410901200021A9F1010200F032FA0246EC
:1037500028400B462140084301D0012100E0002110
:10376000501E029143F1FF3128402140084301D00F
:10377000012000E000200299834651EA0B014FD05E
:10378000002108464FF00000039900F4400039B1D1
:1037900000EB80004FF4400100EBD07001EA6000C4
:1037A0008015012802DD4FF0FF3000E013D0401CEF
:1037B00036D0029860B3BBF1000F0CD14A4601200D
:1037C000002100F0F6F928402140084301D00120F3
:1037D00000E00020E0B101204A46002100F0E9F9B4
:1037E000034640190A4661412D1A8C4111D3B9F1A3
:1037F000400F09DD159810F0240F02D0AAF134060D
:1038000003E0AAF1170600E0761C00254FF0004403
:1038100006E05B1E42F1FF3220EA030521EA0204C2
:10382000CAF10100B04206DA1B490398084301902F
:10383000002000900EE0039AC4F3D321E80A0A4363
:10384000164940EA44500A433146CDE90002684631
:1038500002F016FD159810F0240F0BD01598C00734
:1038600015D13868DDE90012031D3B600068C0E92E
:1038700000120CE002A8694602F0A2FB1598C007EE
:1038800005D13868029A011D39600068026040461F
:10389000F0E6000002FCFFFF0000F07F0000F03FB8
:1038A0002DE9FF4F92461D4685B04FF00041DDE9FE
:1038B000124BDDE914727F1E01EA4B50414940F082
:1038C000FF4940EA0108002122F020004928049124
:1038D00002D04E2828D04CE03BA0012607C88DE836
:1038E0000700A9690698641C88477F1E014606D414
:1038F0001DF8060018B121F0200181420BD0E969C2
:1039000006988847032E34D0082E32D06FF001007D
:1039100009B0BDE8F08F761C032E01D0082EE0D14F
:10392000601CCAF80000DCE7A9690698641C884797
:103930007F1E2AD420F02000412826D1A9690698AC
:10394000641C88477F1E20D420F020004E281CD104
:10395000A9690698641C88477F1E48F4002849F42A
:103960008009CAF8004001D4282806D0E9690698E1
:1039700088475FEACB7012D022E0A9690698641CE0
:1039800088477F1E01D4002803DAE9690698884732
:10399000BCE72928F1D1641CCAF80040E9E71BF014
:1039A000240F07D028680499031D2B600068C0E924
:1039B000001805E02868021D2A600068C0F8009021
:1039C0002046A5E70000F07F494E46494E4954592C
:1039D0000000000070B50646484231EA00000FD0F2
:1039E0002A20741C00253070FDF7F0FA03460022EF
:1039F00053F82500010F000109292BD957312AE07E
:103A0000042913D004DC012908D0022904D109E0DB
:103A100008290FD0102911D0002070BDFDF7D6FA6B
:103A200000680EE0FDF7D2FA40680AE0FDF7CEFA32
:103A3000806806E0FDF7CAFAC06802E0FDF7C6FA42
:103A4000006928B120F0030050F8041C084470BD40
:103A500049A070BD3031521C082A04F8011BC9D39B
:103A60006D1C052DC3DB00202070304670BD2DE994
:103A7000F047E1B14B091AD132B113782A2B06D0A5
:103A8000BDE8F04700F02AB8BDE8F047A2E7537858
:103A90006BB1551C81460F464FF0010800240026EB
:103AA000314615F8010B392804D8303803E00020DE
:103AB000BDE8F0875738491C082940EA0616F0D3BC
:103AC00008FA04F0384203D0FDF780FA40F8246089
:103AD000641C052CE3DB39464846D5E72DE9F04167
:103AE0000C460646154688070AD5114623487844F1
:103AF00005F062FD071E3CD0FDF768FA7F1C4760A9
:103B0000E0070AD029461D4878441A38AFF30080F0
:103B1000071E2ED0FDF75AFA076060070AD529461E
:103B2000164878443438AFF30080071E21D0FDF7E3
:103B30004DFA876020070AD52946104878444E3848
:103B400005F050FD071E14D0FDF740FAC760E006EF
:103B50000AD52946094878446838AFF30080051E25
:103B600007D0FDF733FA056121463046BDE8F04144
:103B700030E7BDE8F0810000430000003273000030
:103B800010B5002102A0FFF765FC012010BD000068
:103B9000534947414252543A2041626E6F726D61FF
:103BA0006C207465726D696E6174696F6E000000DF
:103BB00000DEB2F120030AD5C2F1200301FA02F1BE
:103BC00020FA03F300FA02F041EA0301704700FA19
:103BD00003F14FF0000070472DE9F04116461F46F3
:103BE0000C46851B02E02846B847AD1B641EFAD27E
:103BF000BDE8F0815FEA400C08BF91F0000F4FEA8A
:103C00008C234FEAC12243EA51514FEA1C5018BF9E
:103C100000F5F0404FEA300018BF41F000415FEA84
:103C20006C5C00F02980BCF1FF3F08BF40F0804091
:103C30007047130C06BF12044FF0100C4FF0000C2D
:103C4000130E04BF12020CF1080C130F04BF120173
:103C50000CF1040C930F04BF92000CF1020CD30F73
:103C600004BF52000CF1010C11464FF00002A0F10C
:103C70001F00A0EB0C00704711F0004F08BF704709
:103C800031F000413FF4D5AF0B0C06BF09044FF0F3
:103C9000100C4FF0000C0B0E04BF09020CF1080CC5
:103CA0000B0F04BF09010CF1040C8B0F04BF89003A
:103CB0000CF1020CCB0F04BF49000CF1010CCCF14C
:103CC0002003A0EB0C0022FA03F302FA0CF241EA03
:103CD000030100F10100704720F07F4C80EA0300EF
:103CE00023F07F47ACEB070303F57C5300F0004063
:103CF00003F1FF032DE980494FEA154B09B44FEA60
:103D0000144325EA0B4E24EA03480FF2042606EB7F
:103D1000132749083E785FEA320203FB0667C7F5BE
:103D2000000707FB06F64FEA54374FEAD64606F17E
:103D3000020607FB066CCCF1005C4FEA1C472CEA3C
:103D4000074C07FB06F40CFB06F504EB15464FEA9F
:103D5000961634BF00204FF000404FEAD13706FBE3
:103D600007FC4FEA1C4C0CFB0BF7D21B03FB0CF7B8
:103D700061EB07010CFB0EF7B0EB074072EB17424B
:103D80000CFB08F734BFA2EB0742B2EB074261EB32
:103D900017414FEA0C444FEA910706FB07FC4FEA34
:103DA0001C4C0CFB0BF7B0EBC74072EB573203FB1C
:103DB0000CF734BFA2EBC742B2EBC74261EB5731FD
:103DC0000CFB0EF7B0EBC70072EB57720CFB08F759
:103DD00034BFA2EBC702B2EBC70261EB5771039F7E
:103DE0004FEA816141EA921104EBCC044FEAD137EA
:103DF0004FEA826206FB07FC42EA90124FEA8060BB
:103E00004FEA1C4C0CFB0BF7D21B03FB0CF761EBCE
:103E100007010CFB0EF7B0EB074072EB17420CFBEF
:103E200008F734BFA2EB0742B2EB074261EB174140
:103E30004FEA8C554FEA910704EB9C2406FB07FCE4
:103E40004FEA1C4C0CFB0BF7B0EBC74072EB573240
:103E500003FB0CF734BFA2EBC742B2EBC74261EBE6
:103E600057310CFB0EF7B0EBC70072EB57720CFB2F
:103E700008F734BFA2EBC702B2EBC70261EB577180
:103E800015EB4C254FEA816141EA92114FEA8262BB
:103E90004FEAD13742EA901206FB07FC44F10004D6
:103EA0004FEA80604FEA1C4C0CFB0BF7D21B03FB64
:103EB0000CF761EB07010CFB0EF7B0EB074072EB60
:103EC00017420CFB08F734BFA2EB0742B2EB0742E4
:103ED00061EB174115EB1C154FEA813141EA924124
:103EE0004FEA823242EA90424FEA80304FEA0C7643
:103EF00044F1000448EA03434EEA0B484FF0000E39
:103F0000B2EB080C71EB030724BF624639464EEB57
:103F10000E0E4FF0000B0018524149414BEB0B0BBA
:103F2000B2EB080C71EB03077BF1000B24BF624678
:103F300039464EEB0E0E4FF0000B0018524149412E
:103F40004BEB0B0BB2EB080C71EB03077BF1000B97
:103F500024BF624639464EEB0E0E51EA020718BFE7
:103F600046F0010616EB0E7655F1000254F1000101
:103F700003D5BDE88901BDE80088BDE88901BDE839
:103F80000048B619524141EB0101A3F1010370470A
:103F900080807F7E7D7C7B7A797877767675747386
:103FA000727171706F6E6E6D6C6C6B6A6A69686845
:103FB000676666656464636362616160605F5F5EDB
:103FC0005E5D5D5C5C5B5B5A5A5959585857575651
:103FD00056555555545453535252525151505050B6
:103FE0004F4F4F4E4E4D4D4D4C4C4C4B4B4B4A4A08
:103FF0004A4949494848484747474746464645454C
:104000004544444444434343434242424241414184
:1040100046EA0646A3F570534FEA164646EA42566C
:104020004FEAD22242EA415210B54FEAD121A3F120
:10403000010300F017F820F0004000F1010C00F03F
:10404000004701EB00501146BCF5006F40EA070045
:1040500000D210BD02484FF0000140EA070010BD39
:104060000000F07F002B26D4770021D01CB54FEA4A
:10407000370703B44FF010004FF010014FF000006D
:104080000FBCBDE810400BF1010BBBF1010F08BFE5
:104090005FEA170722BF12F1010211F101014FF08F
:1040A000004143F1000300F0004043EA0000704784
:1040B000F9D35708DAE746EA064613F1400F4FEA0C
:1040C00016461FDD13F1200FDFBF16430A460021FD
:1040D00020335B42C8D0C3F1200746EA064602FA05
:1040E00007F74FEA164646EA0706C3F1200722FA09
:1040F00003F201FA07F721FA03F14FF0000342EA55
:104100000702B1E746EA020646EA06464FEA1646C5
:1041100046EA0106BCBF46EA0646360C4FF00003ED
:104120004FF000024FF000019EE72DE9C048934692
:1041300030B491E8380007C831EA400C48BF34EA8F
:10414000430C03D5FFF7C8FDFFF78CFFF0BCBDE8BB
:1041500000882DE9C048934630B491E8380007C87C
:1041600031EA400C48BF34EA430C03D5FFF7B4FDF5
:10417000FFF74EFFF0BCBDE800882DE9C04893462C
:1041800030B491E8380007C810F0804F08BF13F032
:10419000804F03D100F019F8FFF764FFF0BCBDE8D1
:1041A00000882DE9C048934630B491E8380007C82C
:1041B00010F0804F08BF13F0804F03D100F005F8D6
:1041C000FFF726FFF0BCBDE8008820F07F4780EABB
:1041D000030023F07F4C07EB0C03A3F57C5300F0A6
:1041E0000040A3F1FE0392F0000F00F0B38095F0C1
:1041F000000F00F077802DE901494FEA11404FEAA6
:10420000144621EA004800FB06FC24EA064708FBA6
:1042100006F607FB08F800FB07F718EB06484CEB1F
:10422000164C4FEA124B18EB07484FEA15464CEB79
:10423000174022EA0B4E0BFB06FC25EA06470EFB55
:1042400006F607FB0EFE0BFB07F71EEB064E4CEBCC
:10425000164C4FF000061EEB074E4CEB174B18EBBD
:104260000B0840F1000018EB0E0B58EB000840F172
:1042700000008F1A4FF000013CBFC943661B14BFFA
:10428000B5EB040C00213CBFC943F61B4FEA1744B1
:104290004EEA8E0E27EA04454FEA1C4704FB0762EC
:1042A0002CEA074C05FB07F70CFB05F604FB0CFC9E
:1042B00016EB074642EB174216EB0C4642EB1C424C
:1042C0001BEB060658EB0202414146EA9E0601D569
:1042D000BDE80189B619524141EB0101A3F1010387
:1042E000BDE801894FEA14454FEA114724EA054623
:1042F00021EA074C05FB07F406FB07F70CFB06F168
:1043000005FB0CFC11EB074144EB17444FEA124745
:1043100011EB0C4144EB1C4422EA074C05FB07F26D
:1043200006FB07F70CFB06F605FB0CFC16EB074635
:1043300042EB174216EB0C4642EB1C456A1854F14F
:10434000000148BF7047B619524141EB0101A3F18A
:104350000103704795F0000F37D04FEA11424FEA42
:10436000144721EA024624EA074C02FB07F106FB48
:1043700007F70CFB06F402FB0CFC14EB074441EBC3
:1043800017414FEA154714EB0C4441EB1C4125EA59
:10439000074C02FB07F506FB07F70CFB06F602FBD2
:1043A0000CFC16EB074645EB174516EB0C4645EBA8
:1043B0001C42121951F1000148BF7047B619524111
:1043C00041EB0101A3F1010370474FEA14454FEAA5
:1043D000114724EA054621EA074C05FB07F106FBD5
:1043E00007F70CFB06F24FF0000605FB0CFC12EB86
:1043F000074241EB174112EB0C4251EB1C4148BF05
:104400007047921841EB0101A3F1010370470000CE
:104410000000000010B502F0B9FEBDE8104002F047
:104420001BBD38B504466846AFF300800146204600
:1044300005F070FB38BD000070B50B4804680B4DEB
:1044400014F00B0F05D0D5F800010121006802F02F
:104450009BFF14F0B00F1CBF05F5827004F056FFEF
:104460000348046070BD0000E00F005050070010CA
:10447000E80F005025482021C0F8A011D0F8A01165
:1044800011F0200F05D000BFD0F8A01111F0400F9F
:10449000FAD00221C0F804110022C0F8A821C0F807
:1044A000AC210121C0F80C110B23C0F88430AA23E1
:1044B000C0F88C304FF0550CC0F88CC0C0F880109C
:1044C000C0F88C30C0F88CC0D0F8881011F0806F24
:1044D000FAD00321C0F88010C0F88C30C0F88CC02E
:1044E000D0F8881011F0407FFAD00521C0F80811EB
:1044F0000749C0F8C410C0F8C821016843F23A0265
:1045000021F47041114301607047000000C00F406A
:10451000DE8728041FB51C4600F06EFC044949687C
:1045200004B0204610BDAFF30080AFF30080F7E782
:10453000B806001013B50024012001F073FC0446F6
:10454000204601F050FC4FF0FF301CBDAFF300805F
:10455000AFF30080F4E77047C9B200F001B8000083
:104560002DE9F04F83B005460A2926D00D2904BF56
:104570000020288476D0B5F920200092B5F91C30AF
:10458000B5F92290B5F824B0B5F826A095F8280022
:104590009342C4BFB5F91E204A4549DD009A00EB9D
:1045A00080031A44012A5CBF09EBC00001283FD4F4
:1045B00001EB8100002601900DE0688C95F8281031
:1045C00000EBC1006884002028844BE04FF0000815
:1045D000052E04D001988119244810F80180009814
:1045E000002430440FFA80F718F0010F0AD009EBCD
:1045F000040002B2286839465B46D0F834C0284629
:10460000E0470BE0DA4509D009EB040002B2286864
:1046100039465346D0F834C02846E047601C44B2BF
:104620004FEA5808082CDFDB701C46B2062ECDDBA3
:1046300095F82800298C00EB400201EB420109B2F9
:10464000298495F82A206AB1B5F91C20A0EB8003D3
:1046500002EB43028A4205DA698C01EBC0006884F0
:104660000020288403B00120BDE8F08F0401001071
:1046700070B5044600F12C05C06A0E46B0F1FF3F4C
:1046800004D124225DA16BA002F056FCE9686868A1
:104690000860012004F074FFE06A04F12C05B0F119
:1046A000FF3F04D1242255A162A002F045FC2969F4
:1046B000686808600A2004F063FFE06A04F12C05D2
:1046C000B0F1FF3F04D124224CA15AA002F034FCE7
:1046D000E968686808602068AE21C26B2046904790
:1046E0002068D521C26B2046904720688021C26B8C
:1046F000204690472068A821C26B20469047A07EA4
:10470000401EC1B22068C26B204690472068D3216A
:10471000C26B2046904720680021C26B204690471C
:1047200020684021C26B2046904720688D21C26BD3
:1047300020469047012E0CBF102114212068C26B27
:104740002046904720682021C26B20469047206871
:104750000021C26B204690472068A121C26B2046F1
:1047600090472068C821C26B204690472068DA2114
:10477000C26B20469047608B20280CBF022112217B
:104780002068C26B2046904720688121C26B20467A
:104790009047608B202808BF8F2103D0012E0CBFCB
:1047A0009F21CF212068C26B204690472068D921E5
:1047B000C26B20469047012E0CBF2221F1212068B8
:1047C000C26B204690472068DB21C26B2046904791
:1047D00020684021C26B204690472068A421C26B0C
:1047E000204690472068A621C26B2046904720684B
:1047F000AF21C26B2046BDE8704010476D62656412
:104800002D6F732F746172676574732F5441524713
:1048100045545F4E58502F5441524745545F4C50B9
:1048200043313736582F6770696F5F6F626A65630F
:10483000742E68006F626A2D3E70696E20213D20E3
:104840002850696E4E616D65294E4300704710B562
:10485000044600680021C26B204690472068102162
:10486000C26B2046904720684021C26B204690478B
:104870002068816C2046BDE8104008470029A4BF8D
:10488000B0F91CC08C45D8BF7047002AB8BF70472C
:1048900030B4B0F91EC014469445DCBF30BC70473C
:1048A00090F829C00CF0030C80F829C0BCF1010F6E
:1048B00006D0BCF1020F09D0BCF1030F13D019E0F0
:1048C0000A46018B091B491E09B213E0B0F818C053
:1048D000ACEB0101B0F81AC0491EACEB0402521E49
:1048E00009B212B206E08C46428B2146A2EB0C02C2
:1048F000521E12B2012B4FEAE27302EB53734FEADE
:10490000E304B0F91850406C04FB0511084423F08F
:1049100007034FF0010C0178A2EB03020CFA02F23C
:104920000CBF11439143017030BC70472DE9F04139
:1049300086B0044640208DF80400B4F84800B4F86E
:1049400044100025401A0604360C19BF01AF4FF081
:10495000000806B0BDE8F081791C00205FF010026D
:1049600005EB000C636C401C521E13F80C3001F870
:10497000013BF5D1CDF8008094F85410112301AA21
:10498000206D00F01DFB05F1100085B2B542E3D3A8
:1049900006B0BDE8F08100B583B000228DF8042098
:1049A00000928DF8051090F85410006D022301AAB2
:1049B00000F006FB03B000BD10B5044607482060B8
:1049C00054306060E16C606C0022091A00F018F944
:1049D0002046BDE8104000F0DFBB000020A700002B
:1049E0002DE9F0411F4690460D00064601D00C46C9
:1049F00000E040241EB9204601F0FAF906463B4685
:104A000042462146FDF740FB002802DA00203070C4
:104A100010E0844202DA00F1010402E00AD14FEA18
:104A200044041DB14FF00000BDE8F081304601F0B4
:104A3000D5F9E0E73046F7E72DE9FF4F484D00276D
:104A400089B028689B469246002857D145A000208F
:104A500000BF040001D105F10C0420463A21FEF705
:104A6000E1FB68B13E4A00F8017B121D40A1FDF751
:104A7000E7FE012802D16868002801DC0120686097
:104A80003C4914208946084600BF06001BD04FF45D
:104A90000070C6E901073848F760306006F1100879
:104AA00007A8AFF300800246344904A805F016F8C1
:104AB0000146404605F036F8A0F1100604A805F0BE
:104AC00050F82F4830602B4E06A8AFF30080024606
:104AD0002146684605F002F8074601A801F012F9E0
:104AE000024630683946C36830469847A86001A836
:104AF00001F018F9684605F034F82C60AC68601CC9
:104B000026D06F680DF108081A4E554605A8AFF378
:104B10000080024615A103A804F0E0FFCDE9005093
:104B200030683B462246056931464046A84703A8FF
:104B300005F017F8029A52F8040C60B1DDE909019A
:104B40005B46FFF74DFF044602A805F00AF8204631
:104B50000DB0BDE8F08F02A805F003F80020F7E7DC
:104B6000780600105257535444455252000000003A
:104B700025640000302C0010D4A80000C9A9000052
:104B800064A900000FB47FB5144D2A68002A04D030
:104B90000898032804DC002190477FBC5DF814FBD3
:104BA00009AE69460820084600BF18B100F0C8FEEB
:104BB000044600E0002432462046089900F07EFEBC
:104BC000206881682046884701462A6808989047EF
:104BD0002068016820468847DFE70000B40600101F
:104BE00013B5002401F01EF9044614B90320FFF7A1
:104BF000C9FF20461CBDAFF30080AFF30080F4E78F
:104C000001F0F1B8704700002DE9FC4707464FF06E
:104C10000008C7F800809A46894600F10805C0F8E8
:104C200004801400464608D0B4F1804F01D3AFF39E
:104C30000080A00001F0DCF800E00020C5E90004DD
:104C400003E02868641E40F82460002CF9D1A5F127
:104C50000804C5F80880C5F80C80C4E9068AB9F1D3
:104C600000000AD0FCF700F8401C054601F0C0F82F
:104C70002A464946FEF750FCA061062701A8AFF37B
:104C800000800146684604F045FF82463946174BCE
:104C9000174A042001F062F965688046062D00D3AA
:104CA0003D46C146266806E03146484604F086FF88
:104CB00009F10409361D206800EB8500B042F3D1EC
:104CC00005E008EB850051466D1C04F077FFBD42FE
:104CD000F7D306492068FEF7BCFAC4E900876846A6
:104CE00004F03FFF2046BDE8FC870000639B000006
:104CF0002344000010B50446806901F06FF804F108
:104D0000080004F003FD083804F00EFD10BD2DE985
:104D1000F04104460D461646104600212260FEF77B
:104D200091FB606048B1FBF79FFF401C01F060F809
:104D300007466168FEF752FA676029463046FEF77B
:104D400081FB2046BDE8F08110B54168044629B1D9
:104D50002068FEF777FB606801F040F8204610BD40
:104D60000C0008D00A460DA11048FDF782F9204634
:104D700001F034F809E050B101280AD002280AD025
:104D80000BA206A10948FDF774F9FEF7F1F90AA292
:104D9000F7E70CA2F5E711A2F3E700004578636599
:104DA0007074696F6E3A2025732E0A00D82B00109C
:104DB000756E6B6E6F776E20657863657074696F62
:104DC0006E000000756E65787065637465642065BB
:104DD0007863657074696F6E000000006261645FE3
:104DE000616C6C6F633A206F7574206F66206D651F
:104DF0006D6F72790000000010B50A49044600206A
:104E0000D1E9003200E0401C824204D953F820105E
:104E100009B1A142F7D153F82010002900D1104662
:104E200010BD0000B806001070B504460068416A65
:104E300020468847206801220021036920469847C0
:104E40000546B0F1FF3F206811D00222036900211E
:104E500020469847064620680022294603692046D6
:104E600098472068816A20468847304670BD816A2D
:104E7000204688474FF0FF3070BD704770470000F4
:104E80002DE9F0410546294C27482860284E206826
:104E900068B94FF0FF31306802F040FA206818B965
:104EA000201D00F095FA2060306802F027FA206893
:104EB000271DB84204D059221E491F4802F03CF871
:104EC0004FF0FF31206800F07DFA00211B4A1020CE
:104ED0008C4600BF52F82130AB4208BF42F821C0D7
:104EE000401E01F10101F5D1104C206868B94FF066
:104EF000FF31306802F012FA206818B9201D00F066
:104F000067FA2060306802F0F9F92068B84204D0EE
:104F100059220849084802F00FF8206800F055FAB5
:104F20002846BDE8F0810000E8A70000E409001071
:104F300024060010A4A9000090A90000A4090010F4
:104F40000021FBF75DBD000070B5114C206870B901
:104F5000104D4FF0FF31286802F0E0F9206818B9D1
:104F6000201D00F035FA2060286802F0C7F920689B
:104F7000211D884204D059220749084801F0DCFF6E
:104F80002068BDE870404FF0FF3100F01BBA000010
:104F9000A808001024060010A4A9000090A9000091
:104FA00010B504460068016820468847201D01F0BE
:104FB0001DFE206841682046BDE8104008470000FB
:104FC0002DE9F8430446006888461D4601681746E7
:104FD000089E204688472068016820468847DFF8F9
:104FE0004890D9F80000A04205D0201DA16801F02A
:104FF0006BFDC9F80040206841682046884786F06C
:10500000010000902B463A464146201D01F034FE37
:1050100006462068416820468847B54214BF0120F3
:105020000020BDE8F8830000DC00001070B5104CD3
:10503000206870B90F4D4FF0FF31286802F06EF90B
:10504000206818B9201D00F0C3F92060286802F01C
:1050500055F92068211D884204D059220649074885
:1050600001F06AFF2068BDE8704000F0AEB90000B2
:10507000A808001024060010A4A9000090A90000B0
:1050800070B5044600680D460168204688472946E9
:10509000201DA56001F018FD0348046020684168E8
:1050A0002046BDE870400847DC00001010B50446FB
:1050B00006482060002060600548A060201D01F0C7
:1050C00011FD04480460204610BD00001CA800002B
:1050D000A0860100DC00001000207047002070470F
:1050E000002070472DE9F041054600680F460C4648
:1050F0008E18416A28468847B4420AD0286814F8B6
:10510000011BC26A28469047B0F1FF3F18BFB44266
:10511000F4D12868816A28468847E01BBDE8F08101
:10512000002070470FB470B504460068416A2046FD
:10513000884706AD6069FBF7D2FC2A46606905998D
:10514000FBF7BCF805462068816A20468847284658
:1051500070BC5DF814FB000010B584B000F0CAF814
:1051600004460A4820603C306060002060612246AE
:1051700007A16846FBF7A8F806A16846FBF73EFDC5
:105180006061FFF7DDFE04B0204610BD34A80000CA
:105190003A257000772B000010B5044605482060C2
:1051A0003C3060606069FBF75BFC2046BDE8104066
:1051B00000F0B2B834A80000007B704770B5064616
:1051C0000D46204804F024FA4FF0FF3100F0FAF8C1
:1051D0001D480468002C2ED0A06848B32A463146EA
:1051E000FBF761FD20BBA068FBF73EFDA8421FD185
:1051F000144D286870B9154E4FF0FF31306802F039
:105200008DF8286818B9281D00F0E2F82860306889
:1052100002F074F82868291D884204D059220C49EC
:105220000C4801F089FE286800F0CFF8204670BDD8
:105230006468002CD0D1034804F0EAF900F0C5F806
:10524000002070BD8C080010D8000010240600104B
:10525000A4A9000090A9000070B504460D480026DE
:10526000A160C4E900060D4622730B4804F0D0F992
:10527000711E00F0A7F8002D08BF666003D0074834
:10528000016861600460044804F0C2F900F09DF810
:10529000204670BD80A800008C080010D8000010C7
:1052A00010B5044610482060104804F0B1F94FF0E2
:1052B000FF3100F087F8A06878B10D490868A04276
:1052C00004BF6068086008D04168A14203D0084666
:1052D0004968A142FBD161684160044804F098F933
:1052E00000F073F8204610BD80A800008C08001064
:1052F000D800001010B5064A40F8042B0022FFF732
:10530000ABFF044940F8041D3431416010BD00007A
:10531000E8A7000090A8000010B5001DFFF7C0FF2F
:10532000BDE81040001FFFF7ABBD10B50446406854
:1053300028B1FFF741FF012804BF606810BD0020BD
:1053400010BD10B50446406810B1FFF735FF08B135
:10535000002010BD6068002818BF001F10BD406805
:10536000002818BF0120704710B54068002808BF0A
:1053700010BDFFF721FF00280CBF0120002010BD49
:105380000068704710B5044600202060606008780F
:105390002F280DD1487858B14B1C0021236022687A
:1053A00010782F2806D038B1501C491C2060F6E731
:1053B000204610BD501C20601846FFF7FFFE6060BD
:1053C000204610BD006801F0A9BF006801F096BF3B
:1053D00010B504460020A060E0602061606104F127
:1053E00008006060201D01F05FFF2060002804BFFE
:1053F00002A001F024FA204610BD00004572726F31
:105400007220696E697469616C697A696E6720746B
:105410006865206D75746578206F626A6563740ACB
:105420000000000001F0B4BE406870472DE9FC4167
:105430000D46174601684FF0FF3406226846FFF715
:1054400066FC21462868FFF775F80646401C12D016
:1054500000F0A6FC0546D5E9004104EBC100A042DE
:105460000FD12846491C04F069F9D5E9000100EB89
:10547000C104083C0AE06846FFF766FC2046BDE828
:10548000FC812268521C01D00834E8E73946201D0F
:10549000266000F057FC2868201AC410EBE710B50E
:1054A0000C4600F07DFC4168A14204DD006800EB81
:1054B000C400001D10BDBDE8104000F0EBBBF8B506
:1054C0001C4615460E4600F06BFC4168B1420EDDED
:1054D000006850F83600411C09D0002100916B464D
:1054E00022462946FFF716F86946884200D1002077
:1054F000F8BD406930F81200084000D00120704724
:105500002DE9F84F0646006889461D464169DDF8D9
:1055100028B09246294201D0002406E000693749AC
:10552000284201D0CC6800E08C684FF0000884B1BC
:10553000D9F80070E068B84207D86A46791C04F1CF
:105540000800CDF8008004F0B6F8A06850F8277085
:10555000F7BBBAF1000F02D10420FFF713FB84B1AF
:10556000D9F80070E068B84207D86A46791C04F19F
:105570000800CDF8008004F09EF8A06850F827706D
:1055800037BB326800231EA1506928420ED0022387
:10559000102100200D4203D0116851F8201009E0BD
:1055A0004900401C0628F5D3164903E0106928423B
:1055B00000D00123184600225B46984707463CB1BD
:1055C0003068A04212D02146684600F085FB00E01A
:1055D0000CE04A463946684600F016F8CDF80080DF
:1055E000E069401EE061684600F09CFB4A4639468F
:1055F000304600F009F83846BDE8F88F98060010EC
:1056000000000000C6A90000F8B50646087A154655
:105610000C46C0070FD1286820B917490868401CFC
:105620000860286020683146826820469047A0685C
:1056300040F00100A06030682D68C1680830A942C0
:1056400005D8002100916A46691C04F034F83068DE
:10565000806850F8250030B1C168491EC16002D190
:10566000016849688847E068401CE06030688068ED
:1056700040F82540F8BD0000C00600107CB5054686
:1056800008680C46806948B16846AFF3008002465E
:1056900020688169284604F021FA7CBD01A8AFF397
:1056A0000080024600A1F5E72A00000010B504467C
:1056B000FBF744FB204610BD7CB504462DA1FBF74B
:1056C0001DFCE8B32CA12046FBF718FCC0B34FF437
:1056D000007000F08DFB0546022221466846FFF768
:1056E00016FB0024FAF7D0FD06464FF480733068AD
:1056F0000021005D10F0010F00D0012110F03E0FDD
:1057000001D041F0020110F0400F01D041F004013E
:1057100010F0100F01D041F0080110F0080F01D077
:1057200041F0100110F0980F01D041F02001202825
:105730001DD000220AB141F0400110F0020F00E03C
:1057400013E001D041F0800180EA800010F0800F6A
:1057500001D041F4807125F81410641C9C42C6D11C
:105760006846FFF7F1FA28467CBD05487CBD01225A
:10577000E0E7000043000000504F5349580000008C
:105780006AA400002DE9FC41064615460C46084671
:10579000FFF792FF01462B460022304600F086F9C3
:1057A0003E490160064640693D49884273D0012068
:1057B0003076022221466846FFF7A9FA0024FF2529
:1057C000E2B210213046FFF794FE38B909E0EAB2A0
:1057D00010213046FFF78DFE30B96D1EA542F6D878
:1057E00002E0641CAC42EBD3C6E90745F76A18E057
:1057F000A4F16100192810D8E2B210213046FFF759
:1058000078FE50B1A4F1200808F0FF0208213046CC
:10581000FFF76FFE08B1404600E0204607F8010B95
:10582000641CAC42E4D90024FF25E2B208213046D2
:10583000FFF75FFE38B909E0EAB208213046FFF70A
:1058400058FE30B96D1EA542F6D802E0641CAC4289
:10585000EBD3C6E90945376B18E0A4F141001928DC
:1058600010D8E2B208213046FFF743FE50B104F1F0
:10587000200808F0FF0210213046FFF73AFE08B179
:10588000404600E0204607F8010B641CAC42E4D916
:105890006846FFF759FA3046BDE8FC81E8A80000E9
:1058A0006AA4000010B500F004F8BDE8104000F054
:1058B0009ABA10B500F08EF910BD0000F7B5174682
:1058C000002413460D4606460A4621462046FFF7A9
:1058D000B3F804000DD1002D01DB172D00D30025F6
:1058E000164800213B4650F825200846FFF778F877
:1058F00004467068B8B1FBF7B7F905462046FBF7D8
:10590000B3F92844401C00F073FA7168FDF766FC97
:105910002146FDF792FC0546706800F05FFA2046CC
:1059200000F05CFA2C4674603046FEBDAFF3008098
:10593000204600F053FAAFF30080F5E7E8A300003B
:1059400010B500F027FA024901600021416010BD46
:105950001CA9000010B5044604482060606800F0EF
:105960003DFA2046AFF3008010BD00001CA90000E6
:1059700010B504F0F6F810BD10B504464FF0FF3036
:10598000206000F087F90146201D00F0B5F9001FE6
:1059900010BD10B5001D00F0C5F9001F10BD10B5F9
:1059A000044601C92060201D00F0CCF9204610BD3E
:1059B0002DE9FE43064602A8FFF760FE0222684674
:1059C0000299FFF7A4F902A804F0CBF80024FF2500
:1059D000E2B210213046FFF78CFD38B909E0EAB297
:1059E00010213046FFF785FD30B96D1EA542F6D86F
:1059F00002E0641CAC42EBD3C6E90745F76A18E045
:105A0000A4F16100192810D8E2B210213046FFF746
:105A100070FD50B1A4F1200808F0FF0208213046C3
:105A2000FFF767FD08B1404600E0204607F8010B8C
:105A3000641CAC42E4D90024FF25E2B208213046C0
:105A4000FFF757FD38B909E0EAB208213046FFF701
:105A500050FD30B96D1EA542F6D802E0641CAC4280
:105A6000EBD3C6E90945376B18E0A4F141001928CA
:105A700010D8E2B208213046FFF73BFD50B104F1E7
:105A8000200808F0FF0210213046FFF732FD08B170
:105A9000404600E0204607F8010B641CAC42E4D904
:105AA0006846FFF751F9BDE8FE8300002DE9F0419B
:105AB0000646202070600020C6E902033F4B336099
:105AC0007161327611B93E49716130760024FF254B
:105AD000E2B210213046FFF70CFD38B909E0EAB216
